{
  "_format": "hh-sol-artifact-1",
  "contractName": "ERC20Pausable",
  "sourceName": "contracts/ERC20pausable.sol",
  "abi": [
    {
      "inputs": [],
      "stateMutability": "nonpayable",
      "type": "constructor"
    },
    {
      "anonymous": false,
      "inputs": [
        {
          "indexed": true,
          "internalType": "address",
          "name": "owner",
          "type": "address"
        },
        {
          "indexed": true,
          "internalType": "address",
          "name": "spender",
          "type": "address"
        },
        {
          "indexed": false,
          "internalType": "uint256",
          "name": "value",
          "type": "uint256"
        }
      ],
      "name": "Approval",
      "type": "event"
    },
    {
      "anonymous": false,
      "inputs": [
        {
          "indexed": false,
          "internalType": "address",
          "name": "account",
          "type": "address"
        }
      ],
      "name": "Paused",
      "type": "event"
    },
    {
      "anonymous": false,
      "inputs": [
        {
          "indexed": true,
          "internalType": "address",
          "name": "from",
          "type": "address"
        },
        {
          "indexed": true,
          "internalType": "address",
          "name": "to",
          "type": "address"
        },
        {
          "indexed": false,
          "internalType": "uint256",
          "name": "value",
          "type": "uint256"
        }
      ],
      "name": "Transfer",
      "type": "event"
    },
    {
      "anonymous": false,
      "inputs": [
        {
          "indexed": false,
          "internalType": "address",
          "name": "account",
          "type": "address"
        }
      ],
      "name": "Unpaused",
      "type": "event"
    },
    {
      "inputs": [
        {
          "internalType": "address",
          "name": "owner",
          "type": "address"
        },
        {
          "internalType": "address",
          "name": "spender",
          "type": "address"
        }
      ],
      "name": "allowance",
      "outputs": [
        {
          "internalType": "uint256",
          "name": "",
          "type": "uint256"
        }
      ],
      "stateMutability": "view",
      "type": "function"
    },
    {
      "inputs": [
        {
          "internalType": "address",
          "name": "spender",
          "type": "address"
        },
        {
          "internalType": "uint256",
          "name": "amount",
          "type": "uint256"
        }
      ],
      "name": "approve",
      "outputs": [
        {
          "internalType": "bool",
          "name": "",
          "type": "bool"
        }
      ],
      "stateMutability": "nonpayable",
      "type": "function"
    },
    {
      "inputs": [
        {
          "internalType": "address",
          "name": "account",
          "type": "address"
        }
      ],
      "name": "balanceOf",
      "outputs": [
        {
          "internalType": "uint256",
          "name": "",
          "type": "uint256"
        }
      ],
      "stateMutability": "view",
      "type": "function"
    },
    {
      "inputs": [],
      "name": "decimals",
      "outputs": [
        {
          "internalType": "uint8",
          "name": "",
          "type": "uint8"
        }
      ],
      "stateMutability": "view",
      "type": "function"
    },
    {
      "inputs": [
        {
          "internalType": "address",
          "name": "spender",
          "type": "address"
        },
        {
          "internalType": "uint256",
          "name": "subtractedValue",
          "type": "uint256"
        }
      ],
      "name": "decreaseAllowance",
      "outputs": [
        {
          "internalType": "bool",
          "name": "",
          "type": "bool"
        }
      ],
      "stateMutability": "nonpayable",
      "type": "function"
    },
    {
      "inputs": [
        {
          "internalType": "address",
          "name": "spender",
          "type": "address"
        },
        {
          "internalType": "uint256",
          "name": "addedValue",
          "type": "uint256"
        }
      ],
      "name": "increaseAllowance",
      "outputs": [
        {
          "internalType": "bool",
          "name": "",
          "type": "bool"
        }
      ],
      "stateMutability": "nonpayable",
      "type": "function"
    },
    {
      "inputs": [],
      "name": "name",
      "outputs": [
        {
          "internalType": "string",
          "name": "",
          "type": "string"
        }
      ],
      "stateMutability": "view",
      "type": "function"
    },
    {
      "inputs": [],
      "name": "pause",
      "outputs": [],
      "stateMutability": "nonpayable",
      "type": "function"
    },
    {
      "inputs": [],
      "name": "paused",
      "outputs": [
        {
          "internalType": "bool",
          "name": "",
          "type": "bool"
        }
      ],
      "stateMutability": "view",
      "type": "function"
    },
    {
      "inputs": [],
      "name": "symbol",
      "outputs": [
        {
          "internalType": "string",
          "name": "",
          "type": "string"
        }
      ],
      "stateMutability": "view",
      "type": "function"
    },
    {
      "inputs": [],
      "name": "totalSupply",
      "outputs": [
        {
          "internalType": "uint256",
          "name": "",
          "type": "uint256"
        }
      ],
      "stateMutability": "view",
      "type": "function"
    },
    {
      "inputs": [
        {
          "internalType": "address",
          "name": "to",
          "type": "address"
        },
        {
          "internalType": "uint256",
          "name": "amount",
          "type": "uint256"
        }
      ],
      "name": "transfer",
      "outputs": [
        {
          "internalType": "bool",
          "name": "",
          "type": "bool"
        }
      ],
      "stateMutability": "nonpayable",
      "type": "function"
    },
    {
      "inputs": [
        {
          "internalType": "address",
          "name": "from",
          "type": "address"
        },
        {
          "internalType": "address",
          "name": "to",
          "type": "address"
        },
        {
          "internalType": "uint256",
          "name": "amount",
          "type": "uint256"
        }
      ],
      "name": "transferFrom",
      "outputs": [
        {
          "internalType": "bool",
          "name": "",
          "type": "bool"
        }
      ],
      "stateMutability": "nonpayable",
      "type": "function"
    },
    {
      "inputs": [],
      "name": "unpause",
      "outputs": [],
      "stateMutability": "nonpayable",
      "type": "function"
    }
  ],
  "bytecode": "0x60806040523480156200001157600080fd5b506040518060400160405280600a81526020017f45524332305061757365000000000000000000000000000000000000000000008152506040518060400160405280600581526020017f4552433230000000000000000000000000000000000000000000000000000000815250816003908051906020019062000096929190620000d3565b508060049080519060200190620000af929190620000d3565b5050506000600560006101000a81548160ff021916908315150217905550620001e8565b828054620000e19062000183565b90600052602060002090601f01602090048101928262000105576000855562000151565b82601f106200012057805160ff191683800117855562000151565b8280016001018555821562000151579182015b828111156200015057825182559160200191906001019062000133565b5b50905062000160919062000164565b5090565b5b808211156200017f57600081600090555060010162000165565b5090565b600060028204905060018216806200019c57607f821691505b60208210811415620001b357620001b2620001b9565b5b50919050565b7f4e487b7100000000000000000000000000000000000000000000000000000000600052602260045260246000fd5b61165e80620001f86000396000f3fe608060405234801561001057600080fd5b50600436106100ea5760003560e01c80635c975abb1161008c57806395d89b411161006657806395d89b411461023b578063a457c2d714610259578063a9059cbb14610289578063dd62ed3e146102b9576100ea565b80635c975abb146101e357806370a08231146102015780638456cb5914610231576100ea565b806323b872dd116100c857806323b872dd1461015b578063313ce5671461018b57806339509351146101a95780633f4ba83a146101d9576100ea565b806306fdde03146100ef578063095ea7b31461010d57806318160ddd1461013d575b600080fd5b6100f76102e9565b60405161010491906112c7565b60405180910390f35b61012760048036038101906101229190610e56565b61037b565b60405161013491906112ac565b60405180910390f35b61014561039e565b6040516101529190611429565b60405180910390f35b61017560048036038101906101709190610e07565b6103a8565b60405161018291906112ac565b60405180910390f35b6101936103d7565b6040516101a09190611444565b60405180910390f35b6101c360048036038101906101be9190610e56565b6103e0565b6040516101d091906112ac565b60405180910390f35b6101e1610417565b005b6101eb61047b565b6040516101f891906112ac565b60405180910390f35b61021b60048036038101906102169190610da2565b610492565b6040516102289190611429565b60405180910390f35b6102396104da565b005b61024361053e565b60405161025091906112c7565b60405180910390f35b610273600480360381019061026e9190610e56565b6105d0565b60405161028091906112ac565b60405180910390f35b6102a3600480360381019061029e9190610e56565b610647565b6040516102b091906112ac565b60405180910390f35b6102d360048036038101906102ce9190610dcb565b61066a565b6040516102e09190611429565b60405180910390f35b6060600380546102f890611559565b80601f016020809104026020016040519081016040528092919081815260200182805461032490611559565b80156103715780601f1061034657610100808354040283529160200191610371565b820191906000526020600020905b81548152906001019060200180831161035457829003601f168201915b5050505050905090565b6000806103866106f1565b90506103938185856106f9565b600191505092915050565b6000600254905090565b6000806103b36106f1565b90506103c08582856108c4565b6103cb858585610950565b60019150509392505050565b60006012905090565b6000806103eb6106f1565b905061040c8185856103fd858961066a565b610407919061147b565b6106f9565b600191505092915050565b600560019054906101000a900473ffffffffffffffffffffffffffffffffffffffff1673ffffffffffffffffffffffffffffffffffffffff163373ffffffffffffffffffffffffffffffffffffffff161461047157600080fd5b610479610bd1565b565b6000600560009054906101000a900460ff16905090565b60008060008373ffffffffffffffffffffffffffffffffffffffff1673ffffffffffffffffffffffffffffffffffffffff168152602001908152602001600020549050919050565b600560019054906101000a900473ffffffffffffffffffffffffffffffffffffffff1673ffffffffffffffffffffffffffffffffffffffff163373ffffffffffffffffffffffffffffffffffffffff161461053457600080fd5b61053c610c73565b565b60606004805461054d90611559565b80601f016020809104026020016040519081016040528092919081815260200182805461057990611559565b80156105c65780601f1061059b576101008083540402835291602001916105c6565b820191906000526020600020905b8154815290600101906020018083116105a957829003601f168201915b5050505050905090565b6000806105db6106f1565b905060006105e9828661066a565b90508381101561062e576040517f08c379a0000000000000000000000000000000000000000000000000000000008152600401610625906113e9565b60405180910390fd5b61063b82868684036106f9565b60019250505092915050565b6000806106526106f1565b905061065f818585610950565b600191505092915050565b6000600160008473ffffffffffffffffffffffffffffffffffffffff1673ffffffffffffffffffffffffffffffffffffffff16815260200190815260200160002060008373ffffffffffffffffffffffffffffffffffffffff1673ffffffffffffffffffffffffffffffffffffffff16815260200190815260200160002054905092915050565b600033905090565b600073ffffffffffffffffffffffffffffffffffffffff168373ffffffffffffffffffffffffffffffffffffffff161415610769576040517f08c379a0000000000000000000000000000000000000000000000000000000008152600401610760906113c9565b60405180910390fd5b600073ffffffffffffffffffffffffffffffffffffffff168273ffffffffffffffffffffffffffffffffffffffff1614156107d9576040517f08c379a00000000000000000000000000000000000000000000000000000000081526004016107d090611329565b60405180910390fd5b80600160008573ffffffffffffffffffffffffffffffffffffffff1673ffffffffffffffffffffffffffffffffffffffff16815260200190815260200160002060008473ffffffffffffffffffffffffffffffffffffffff1673ffffffffffffffffffffffffffffffffffffffff168152602001908152602001600020819055508173ffffffffffffffffffffffffffffffffffffffff168373ffffffffffffffffffffffffffffffffffffffff167f8c5be1e5ebec7d5bd14f71427d1e84f3dd0314c0f7b2291e5b200ac8c7c3b925836040516108b79190611429565b60405180910390a3505050565b60006108d0848461066a565b90507fffffffffffffffffffffffffffffffffffffffffffffffffffffffffffffffff811461094a578181101561093c576040517f08c379a000000000000000000000000000000000000000000000000000000000815260040161093390611349565b60405180910390fd5b61094984848484036106f9565b5b50505050565b600073ffffffffffffffffffffffffffffffffffffffff168373ffffffffffffffffffffffffffffffffffffffff1614156109c0576040517f08c379a00000000000000000000000000000000000000000000000000000000081526004016109b7906113a9565b60405180910390fd5b600073ffffffffffffffffffffffffffffffffffffffff168273ffffffffffffffffffffffffffffffffffffffff161415610a30576040517f08c379a0000000000000000000000000000000000000000000000000000000008152600401610a27906112e9565b60405180910390fd5b610a3b838383610d16565b60008060008573ffffffffffffffffffffffffffffffffffffffff1673ffffffffffffffffffffffffffffffffffffffff16815260200190815260200160002054905081811015610ac1576040517f08c379a0000000000000000000000000000000000000000000000000000000008152600401610ab890611369565b60405180910390fd5b8181036000808673ffffffffffffffffffffffffffffffffffffffff1673ffffffffffffffffffffffffffffffffffffffff16815260200190815260200160002081905550816000808573ffffffffffffffffffffffffffffffffffffffff1673ffffffffffffffffffffffffffffffffffffffff1681526020019081526020016000206000828254610b54919061147b565b925050819055508273ffffffffffffffffffffffffffffffffffffffff168473ffffffffffffffffffffffffffffffffffffffff167fddf252ad1be2c89b69c2b068fc378daa952ba7f163c4a11628f55a4df523b3ef84604051610bb89190611429565b60405180910390a3610bcb848484610d6e565b50505050565b610bd961047b565b610c18576040517f08c379a0000000000000000000000000000000000000000000000000000000008152600401610c0f90611309565b60405180910390fd5b6000600560006101000a81548160ff0219169083151502179055507f5db9ee0a495bf2e6ff9c91a7834c1ba4fdd244a5e8aa4e537bd38aeae4b073aa610c5c6106f1565b604051610c699190611291565b60405180910390a1565b610c7b61047b565b15610cbb576040517f08c379a0000000000000000000000000000000000000000000000000000000008152600401610cb290611389565b60405180910390fd5b6001600560006101000a81548160ff0219169083151502179055507f62e78cea01bee320cd4e420270b5ea74000d11b0c9f74754ebdbfc544b05a258610cff6106f1565b604051610d0c9190611291565b60405180910390a1565b610d21838383610d73565b610d2961047b565b15610d69576040517f08c379a0000000000000000000000000000000000000000000000000000000008152600401610d6090611409565b60405180910390fd5b505050565b505050565b505050565b600081359050610d87816115fa565b92915050565b600081359050610d9c81611611565b92915050565b600060208284031215610db457600080fd5b6000610dc284828501610d78565b91505092915050565b60008060408385031215610dde57600080fd5b6000610dec85828601610d78565b9250506020610dfd85828601610d78565b9150509250929050565b600080600060608486031215610e1c57600080fd5b6000610e2a86828701610d78565b9350506020610e3b86828701610d78565b9250506040610e4c86828701610d8d565b9150509250925092565b60008060408385031215610e6957600080fd5b6000610e7785828601610d78565b9250506020610e8885828601610d8d565b9150509250929050565b610e9b816114d1565b82525050565b610eaa816114e3565b82525050565b6000610ebb8261145f565b610ec5818561146a565b9350610ed5818560208601611526565b610ede816115e9565b840191505092915050565b6000610ef660238361146a565b91507f45524332303a207472616e7366657220746f20746865207a65726f206164647260008301527f65737300000000000000000000000000000000000000000000000000000000006020830152604082019050919050565b6000610f5c60148361146a565b91507f5061757361626c653a206e6f74207061757365640000000000000000000000006000830152602082019050919050565b6000610f9c60228361146a565b91507f45524332303a20617070726f766520746f20746865207a65726f20616464726560008301527f73730000000000000000000000000000000000000000000000000000000000006020830152604082019050919050565b6000611002601d8361146a565b91507f45524332303a20696e73756666696369656e7420616c6c6f77616e63650000006000830152602082019050919050565b600061104260268361146a565b91507f45524332303a207472616e7366657220616d6f756e742065786365656473206260008301527f616c616e636500000000000000000000000000000000000000000000000000006020830152604082019050919050565b60006110a860108361146a565b91507f5061757361626c653a20706175736564000000000000000000000000000000006000830152602082019050919050565b60006110e860258361146a565b91507f45524332303a207472616e736665722066726f6d20746865207a65726f20616460008301527f64726573730000000000000000000000000000000000000000000000000000006020830152604082019050919050565b600061114e60248361146a565b91507f45524332303a20617070726f76652066726f6d20746865207a65726f2061646460008301527f72657373000000000000000000000000000000000000000000000000000000006020830152604082019050919050565b60006111b460258361146a565b91507f45524332303a2064656372656173656420616c6c6f77616e63652062656c6f7760008301527f207a65726f0000000000000000000000000000000000000000000000000000006020830152604082019050919050565b600061121a602a8361146a565b91507f45524332305061757361626c653a20746f6b656e207472616e7366657220776860008301527f696c6520706175736564000000000000000000000000000000000000000000006020830152604082019050919050565b61127c8161150f565b82525050565b61128b81611519565b82525050565b60006020820190506112a66000830184610e92565b92915050565b60006020820190506112c16000830184610ea1565b92915050565b600060208201905081810360008301526112e18184610eb0565b905092915050565b6000602082019050818103600083015261130281610ee9565b9050919050565b6000602082019050818103600083015261132281610f4f565b9050919050565b6000602082019050818103600083015261134281610f8f565b9050919050565b6000602082019050818103600083015261136281610ff5565b9050919050565b6000602082019050818103600083015261138281611035565b9050919050565b600060208201905081810360008301526113a28161109b565b9050919050565b600060208201905081810360008301526113c2816110db565b9050919050565b600060208201905081810360008301526113e281611141565b9050919050565b60006020820190508181036000830152611402816111a7565b9050919050565b600060208201905081810360008301526114228161120d565b9050919050565b600060208201905061143e6000830184611273565b92915050565b60006020820190506114596000830184611282565b92915050565b600081519050919050565b600082825260208201905092915050565b60006114868261150f565b91506114918361150f565b9250827fffffffffffffffffffffffffffffffffffffffffffffffffffffffffffffffff038211156114c6576114c561158b565b5b828201905092915050565b60006114dc826114ef565b9050919050565b60008115159050919050565b600073ffffffffffffffffffffffffffffffffffffffff82169050919050565b6000819050919050565b600060ff82169050919050565b60005b83811015611544578082015181840152602081019050611529565b83811115611553576000848401525b50505050565b6000600282049050600182168061157157607f821691505b60208210811415611585576115846115ba565b5b50919050565b7f4e487b7100000000000000000000000000000000000000000000000000000000600052601160045260246000fd5b7f4e487b7100000000000000000000000000000000000000000000000000000000600052602260045260246000fd5b6000601f19601f8301169050919050565b611603816114d1565b811461160e57600080fd5b50565b61161a8161150f565b811461162557600080fd5b5056fea2646970667358221220dc68221b2ceea3c11a7d539046a956f9096490d0efd5f6f65714a6d1046f11ad64736f6c63430008000033",
  "linkReferences": {},
  "deployedLinkReferences": {}
}