{
  "_format": "hh-sol-artifact-1",
  "contractName": "ERC20Pausable",
  "sourceName": "contracts/ERC20pausable.sol",
  "abi": [
    {
      "inputs": [],
      "stateMutability": "nonpayable",
      "type": "constructor"
    },
    {
      "anonymous": false,
      "inputs": [
        {
          "indexed": true,
          "internalType": "address",
          "name": "owner",
          "type": "address"
        },
        {
          "indexed": true,
          "internalType": "address",
          "name": "spender",
          "type": "address"
        },
        {
          "indexed": false,
          "internalType": "uint256",
          "name": "value",
          "type": "uint256"
        }
      ],
      "name": "Approval",
      "type": "event"
    },
    {
      "anonymous": false,
      "inputs": [
        {
          "indexed": false,
          "internalType": "address",
          "name": "account",
          "type": "address"
        }
      ],
      "name": "Paused",
      "type": "event"
    },
    {
      "anonymous": false,
      "inputs": [
        {
          "indexed": true,
          "internalType": "address",
          "name": "from",
          "type": "address"
        },
        {
          "indexed": true,
          "internalType": "address",
          "name": "to",
          "type": "address"
        },
        {
          "indexed": false,
          "internalType": "uint256",
          "name": "value",
          "type": "uint256"
        }
      ],
      "name": "Transfer",
      "type": "event"
    },
    {
      "anonymous": false,
      "inputs": [
        {
          "indexed": false,
          "internalType": "address",
          "name": "account",
          "type": "address"
        }
      ],
      "name": "Unpaused",
      "type": "event"
    },
    {
      "inputs": [
        {
          "internalType": "address",
          "name": "owner",
          "type": "address"
        },
        {
          "internalType": "address",
          "name": "spender",
          "type": "address"
        }
      ],
      "name": "allowance",
      "outputs": [
        {
          "internalType": "uint256",
          "name": "",
          "type": "uint256"
        }
      ],
      "stateMutability": "view",
      "type": "function"
    },
    {
      "inputs": [
        {
          "internalType": "address",
          "name": "spender",
          "type": "address"
        },
        {
          "internalType": "uint256",
          "name": "amount",
          "type": "uint256"
        }
      ],
      "name": "approve",
      "outputs": [
        {
          "internalType": "bool",
          "name": "",
          "type": "bool"
        }
      ],
      "stateMutability": "nonpayable",
      "type": "function"
    },
    {
      "inputs": [
        {
          "internalType": "address",
          "name": "account",
          "type": "address"
        }
      ],
      "name": "balanceOf",
      "outputs": [
        {
          "internalType": "uint256",
          "name": "",
          "type": "uint256"
        }
      ],
      "stateMutability": "view",
      "type": "function"
    },
    {
      "inputs": [],
      "name": "decimals",
      "outputs": [
        {
          "internalType": "uint8",
          "name": "",
          "type": "uint8"
        }
      ],
      "stateMutability": "view",
      "type": "function"
    },
    {
      "inputs": [
        {
          "internalType": "address",
          "name": "spender",
          "type": "address"
        },
        {
          "internalType": "uint256",
          "name": "subtractedValue",
          "type": "uint256"
        }
      ],
      "name": "decreaseAllowance",
      "outputs": [
        {
          "internalType": "bool",
          "name": "",
          "type": "bool"
        }
      ],
      "stateMutability": "nonpayable",
      "type": "function"
    },
    {
      "inputs": [
        {
          "internalType": "address",
          "name": "spender",
          "type": "address"
        },
        {
          "internalType": "uint256",
          "name": "addedValue",
          "type": "uint256"
        }
      ],
      "name": "increaseAllowance",
      "outputs": [
        {
          "internalType": "bool",
          "name": "",
          "type": "bool"
        }
      ],
      "stateMutability": "nonpayable",
      "type": "function"
    },
    {
      "inputs": [],
      "name": "name",
      "outputs": [
        {
          "internalType": "string",
          "name": "",
          "type": "string"
        }
      ],
      "stateMutability": "view",
      "type": "function"
    },
    {
      "inputs": [],
      "name": "paused",
      "outputs": [
        {
          "internalType": "bool",
          "name": "",
          "type": "bool"
        }
      ],
      "stateMutability": "view",
      "type": "function"
    },
    {
      "inputs": [],
      "name": "symbol",
      "outputs": [
        {
          "internalType": "string",
          "name": "",
          "type": "string"
        }
      ],
      "stateMutability": "view",
      "type": "function"
    },
    {
      "inputs": [],
      "name": "totalSupply",
      "outputs": [
        {
          "internalType": "uint256",
          "name": "",
          "type": "uint256"
        }
      ],
      "stateMutability": "view",
      "type": "function"
    },
    {
      "inputs": [
        {
          "internalType": "address",
          "name": "to",
          "type": "address"
        },
        {
          "internalType": "uint256",
          "name": "amount",
          "type": "uint256"
        }
      ],
      "name": "transfer",
      "outputs": [
        {
          "internalType": "bool",
          "name": "",
          "type": "bool"
        }
      ],
      "stateMutability": "nonpayable",
      "type": "function"
    },
    {
      "inputs": [
        {
          "internalType": "address",
          "name": "from",
          "type": "address"
        },
        {
          "internalType": "address",
          "name": "to",
          "type": "address"
        },
        {
          "internalType": "uint256",
          "name": "amount",
          "type": "uint256"
        }
      ],
      "name": "transferFrom",
      "outputs": [
        {
          "internalType": "bool",
          "name": "",
          "type": "bool"
        }
      ],
      "stateMutability": "nonpayable",
      "type": "function"
    }
  ],
  "bytecode": "0x60806040523480156200001157600080fd5b506040518060400160405280600a81526020017f45524332305061757365000000000000000000000000000000000000000000008152506040518060400160405280600581526020017f4552433230000000000000000000000000000000000000000000000000000000815250816003908051906020019062000096929190620000d3565b508060049080519060200190620000af929190620000d3565b5050506000600560006101000a81548160ff021916908315150217905550620001e8565b828054620000e19062000183565b90600052602060002090601f01602090048101928262000105576000855562000151565b82601f106200012057805160ff191683800117855562000151565b8280016001018555821562000151579182015b828111156200015057825182559160200191906001019062000133565b5b50905062000160919062000164565b5090565b5b808211156200017f57600081600090555060010162000165565b5090565b600060028204905060018216806200019c57607f821691505b60208210811415620001b357620001b2620001b9565b5b50919050565b7f4e487b7100000000000000000000000000000000000000000000000000000000600052602260045260246000fd5b61131d80620001f86000396000f3fe608060405234801561001057600080fd5b50600436106100b45760003560e01c80635c975abb116100715780635c975abb146101a357806370a08231146101c157806395d89b41146101f1578063a457c2d71461020f578063a9059cbb1461023f578063dd62ed3e1461026f576100b4565b806306fdde03146100b9578063095ea7b3146100d757806318160ddd1461010757806323b872dd14610125578063313ce567146101555780633950935114610173575b600080fd5b6100c161029f565b6040516100ce9190610fc6565b60405180910390f35b6100f160048036038101906100ec9190610bff565b610331565b6040516100fe9190610fab565b60405180910390f35b61010f610354565b60405161011c91906110e8565b60405180910390f35b61013f600480360381019061013a9190610bb0565b61035e565b60405161014c9190610fab565b60405180910390f35b61015d61038d565b60405161016a9190611103565b60405180910390f35b61018d60048036038101906101889190610bff565b610396565b60405161019a9190610fab565b60405180910390f35b6101ab6103cd565b6040516101b89190610fab565b60405180910390f35b6101db60048036038101906101d69190610b4b565b6103e4565b6040516101e891906110e8565b60405180910390f35b6101f961042c565b6040516102069190610fc6565b60405180910390f35b61022960048036038101906102249190610bff565b6104be565b6040516102369190610fab565b60405180910390f35b61025960048036038101906102549190610bff565b610535565b6040516102669190610fab565b60405180910390f35b61028960048036038101906102849190610b74565b610558565b60405161029691906110e8565b60405180910390f35b6060600380546102ae90611218565b80601f01602080910402602001604051908101604052809291908181526020018280546102da90611218565b80156103275780601f106102fc57610100808354040283529160200191610327565b820191906000526020600020905b81548152906001019060200180831161030a57829003601f168201915b5050505050905090565b60008061033c6105df565b90506103498185856105e7565b600191505092915050565b6000600254905090565b6000806103696105df565b90506103768582856107b2565b61038185858561083e565b60019150509392505050565b60006012905090565b6000806103a16105df565b90506103c28185856103b38589610558565b6103bd919061113a565b6105e7565b600191505092915050565b6000600560009054906101000a900460ff16905090565b60008060008373ffffffffffffffffffffffffffffffffffffffff1673ffffffffffffffffffffffffffffffffffffffff168152602001908152602001600020549050919050565b60606004805461043b90611218565b80601f016020809104026020016040519081016040528092919081815260200182805461046790611218565b80156104b45780601f10610489576101008083540402835291602001916104b4565b820191906000526020600020905b81548152906001019060200180831161049757829003601f168201915b5050505050905090565b6000806104c96105df565b905060006104d78286610558565b90508381101561051c576040517f08c379a0000000000000000000000000000000000000000000000000000000008152600401610513906110a8565b60405180910390fd5b61052982868684036105e7565b60019250505092915050565b6000806105406105df565b905061054d81858561083e565b600191505092915050565b6000600160008473ffffffffffffffffffffffffffffffffffffffff1673ffffffffffffffffffffffffffffffffffffffff16815260200190815260200160002060008373ffffffffffffffffffffffffffffffffffffffff1673ffffffffffffffffffffffffffffffffffffffff16815260200190815260200160002054905092915050565b600033905090565b600073ffffffffffffffffffffffffffffffffffffffff168373ffffffffffffffffffffffffffffffffffffffff161415610657576040517f08c379a000000000000000000000000000000000000000000000000000000000815260040161064e90611088565b60405180910390fd5b600073ffffffffffffffffffffffffffffffffffffffff168273ffffffffffffffffffffffffffffffffffffffff1614156106c7576040517f08c379a00000000000000000000000000000000000000000000000000000000081526004016106be90611008565b60405180910390fd5b80600160008573ffffffffffffffffffffffffffffffffffffffff1673ffffffffffffffffffffffffffffffffffffffff16815260200190815260200160002060008473ffffffffffffffffffffffffffffffffffffffff1673ffffffffffffffffffffffffffffffffffffffff168152602001908152602001600020819055508173ffffffffffffffffffffffffffffffffffffffff168373ffffffffffffffffffffffffffffffffffffffff167f8c5be1e5ebec7d5bd14f71427d1e84f3dd0314c0f7b2291e5b200ac8c7c3b925836040516107a591906110e8565b60405180910390a3505050565b60006107be8484610558565b90507fffffffffffffffffffffffffffffffffffffffffffffffffffffffffffffffff8114610838578181101561082a576040517f08c379a000000000000000000000000000000000000000000000000000000000815260040161082190611028565b60405180910390fd5b61083784848484036105e7565b5b50505050565b600073ffffffffffffffffffffffffffffffffffffffff168373ffffffffffffffffffffffffffffffffffffffff1614156108ae576040517f08c379a00000000000000000000000000000000000000000000000000000000081526004016108a590611068565b60405180910390fd5b600073ffffffffffffffffffffffffffffffffffffffff168273ffffffffffffffffffffffffffffffffffffffff16141561091e576040517f08c379a000000000000000000000000000000000000000000000000000000000815260040161091590610fe8565b60405180910390fd5b610929838383610abf565b60008060008573ffffffffffffffffffffffffffffffffffffffff1673ffffffffffffffffffffffffffffffffffffffff168152602001908152602001600020549050818110156109af576040517f08c379a00000000000000000000000000000000000000000000000000000000081526004016109a690611048565b60405180910390fd5b8181036000808673ffffffffffffffffffffffffffffffffffffffff1673ffffffffffffffffffffffffffffffffffffffff16815260200190815260200160002081905550816000808573ffffffffffffffffffffffffffffffffffffffff1673ffffffffffffffffffffffffffffffffffffffff1681526020019081526020016000206000828254610a42919061113a565b925050819055508273ffffffffffffffffffffffffffffffffffffffff168473ffffffffffffffffffffffffffffffffffffffff167fddf252ad1be2c89b69c2b068fc378daa952ba7f163c4a11628f55a4df523b3ef84604051610aa691906110e8565b60405180910390a3610ab9848484610b17565b50505050565b610aca838383610b1c565b610ad26103cd565b15610b12576040517f08c379a0000000000000000000000000000000000000000000000000000000008152600401610b09906110c8565b60405180910390fd5b505050565b505050565b505050565b600081359050610b30816112b9565b92915050565b600081359050610b45816112d0565b92915050565b600060208284031215610b5d57600080fd5b6000610b6b84828501610b21565b91505092915050565b60008060408385031215610b8757600080fd5b6000610b9585828601610b21565b9250506020610ba685828601610b21565b9150509250929050565b600080600060608486031215610bc557600080fd5b6000610bd386828701610b21565b9350506020610be486828701610b21565b9250506040610bf586828701610b36565b9150509250925092565b60008060408385031215610c1257600080fd5b6000610c2085828601610b21565b9250506020610c3185828601610b36565b9150509250929050565b610c44816111a2565b82525050565b6000610c558261111e565b610c5f8185611129565b9350610c6f8185602086016111e5565b610c78816112a8565b840191505092915050565b6000610c90602383611129565b91507f45524332303a207472616e7366657220746f20746865207a65726f206164647260008301527f65737300000000000000000000000000000000000000000000000000000000006020830152604082019050919050565b6000610cf6602283611129565b91507f45524332303a20617070726f766520746f20746865207a65726f20616464726560008301527f73730000000000000000000000000000000000000000000000000000000000006020830152604082019050919050565b6000610d5c601d83611129565b91507f45524332303a20696e73756666696369656e7420616c6c6f77616e63650000006000830152602082019050919050565b6000610d9c602683611129565b91507f45524332303a207472616e7366657220616d6f756e742065786365656473206260008301527f616c616e636500000000000000000000000000000000000000000000000000006020830152604082019050919050565b6000610e02602583611129565b91507f45524332303a207472616e736665722066726f6d20746865207a65726f20616460008301527f64726573730000000000000000000000000000000000000000000000000000006020830152604082019050919050565b6000610e68602483611129565b91507f45524332303a20617070726f76652066726f6d20746865207a65726f2061646460008301527f72657373000000000000000000000000000000000000000000000000000000006020830152604082019050919050565b6000610ece602583611129565b91507f45524332303a2064656372656173656420616c6c6f77616e63652062656c6f7760008301527f207a65726f0000000000000000000000000000000000000000000000000000006020830152604082019050919050565b6000610f34602a83611129565b91507f45524332305061757361626c653a20746f6b656e207472616e7366657220776860008301527f696c6520706175736564000000000000000000000000000000000000000000006020830152604082019050919050565b610f96816111ce565b82525050565b610fa5816111d8565b82525050565b6000602082019050610fc06000830184610c3b565b92915050565b60006020820190508181036000830152610fe08184610c4a565b905092915050565b6000602082019050818103600083015261100181610c83565b9050919050565b6000602082019050818103600083015261102181610ce9565b9050919050565b6000602082019050818103600083015261104181610d4f565b9050919050565b6000602082019050818103600083015261106181610d8f565b9050919050565b6000602082019050818103600083015261108181610df5565b9050919050565b600060208201905081810360008301526110a181610e5b565b9050919050565b600060208201905081810360008301526110c181610ec1565b9050919050565b600060208201905081810360008301526110e181610f27565b9050919050565b60006020820190506110fd6000830184610f8d565b92915050565b60006020820190506111186000830184610f9c565b92915050565b600081519050919050565b600082825260208201905092915050565b6000611145826111ce565b9150611150836111ce565b9250827fffffffffffffffffffffffffffffffffffffffffffffffffffffffffffffffff038211156111855761118461124a565b5b828201905092915050565b600061119b826111ae565b9050919050565b60008115159050919050565b600073ffffffffffffffffffffffffffffffffffffffff82169050919050565b6000819050919050565b600060ff82169050919050565b60005b838110156112035780820151818401526020810190506111e8565b83811115611212576000848401525b50505050565b6000600282049050600182168061123057607f821691505b6020821081141561124457611243611279565b5b50919050565b7f4e487b7100000000000000000000000000000000000000000000000000000000600052601160045260246000fd5b7f4e487b7100000000000000000000000000000000000000000000000000000000600052602260045260246000fd5b6000601f19601f8301169050919050565b6112c281611190565b81146112cd57600080fd5b50565b6112d9816111ce565b81146112e457600080fd5b5056fea2646970667358221220349842cf71d5d66bf15fe58b72399251121710d1bde7e1c21858e013e1dc09d964736f6c63430008000033",
  "linkReferences": {},
  "deployedLinkReferences": {}
}