{
  "_format": "hh-sol-artifact-1",
  "contractName": "ERC20Burnable",
  "sourceName": "contracts/erc20burnable.sol",
  "abi": [
    {
      "inputs": [],
      "stateMutability": "nonpayable",
      "type": "constructor"
    },
    {
      "anonymous": false,
      "inputs": [
        {
          "indexed": true,
          "internalType": "address",
          "name": "owner",
          "type": "address"
        },
        {
          "indexed": true,
          "internalType": "address",
          "name": "spender",
          "type": "address"
        },
        {
          "indexed": false,
          "internalType": "uint256",
          "name": "value",
          "type": "uint256"
        }
      ],
      "name": "Approval",
      "type": "event"
    },
    {
      "anonymous": false,
      "inputs": [
        {
          "indexed": true,
          "internalType": "address",
          "name": "from",
          "type": "address"
        },
        {
          "indexed": true,
          "internalType": "address",
          "name": "to",
          "type": "address"
        },
        {
          "indexed": false,
          "internalType": "uint256",
          "name": "value",
          "type": "uint256"
        }
      ],
      "name": "Transfer",
      "type": "event"
    },
    {
      "inputs": [
        {
          "internalType": "address",
          "name": "owner",
          "type": "address"
        },
        {
          "internalType": "address",
          "name": "spender",
          "type": "address"
        }
      ],
      "name": "allowance",
      "outputs": [
        {
          "internalType": "uint256",
          "name": "",
          "type": "uint256"
        }
      ],
      "stateMutability": "view",
      "type": "function"
    },
    {
      "inputs": [
        {
          "internalType": "address",
          "name": "spender",
          "type": "address"
        },
        {
          "internalType": "uint256",
          "name": "amount",
          "type": "uint256"
        }
      ],
      "name": "approve",
      "outputs": [
        {
          "internalType": "bool",
          "name": "",
          "type": "bool"
        }
      ],
      "stateMutability": "nonpayable",
      "type": "function"
    },
    {
      "inputs": [
        {
          "internalType": "address",
          "name": "account",
          "type": "address"
        }
      ],
      "name": "balanceOf",
      "outputs": [
        {
          "internalType": "uint256",
          "name": "",
          "type": "uint256"
        }
      ],
      "stateMutability": "view",
      "type": "function"
    },
    {
      "inputs": [
        {
          "internalType": "uint256",
          "name": "amount",
          "type": "uint256"
        }
      ],
      "name": "burn",
      "outputs": [],
      "stateMutability": "nonpayable",
      "type": "function"
    },
    {
      "inputs": [
        {
          "internalType": "address",
          "name": "account",
          "type": "address"
        },
        {
          "internalType": "uint256",
          "name": "amount",
          "type": "uint256"
        }
      ],
      "name": "burnFrom",
      "outputs": [],
      "stateMutability": "nonpayable",
      "type": "function"
    },
    {
      "inputs": [],
      "name": "decimals",
      "outputs": [
        {
          "internalType": "uint8",
          "name": "",
          "type": "uint8"
        }
      ],
      "stateMutability": "view",
      "type": "function"
    },
    {
      "inputs": [
        {
          "internalType": "address",
          "name": "spender",
          "type": "address"
        },
        {
          "internalType": "uint256",
          "name": "subtractedValue",
          "type": "uint256"
        }
      ],
      "name": "decreaseAllowance",
      "outputs": [
        {
          "internalType": "bool",
          "name": "",
          "type": "bool"
        }
      ],
      "stateMutability": "nonpayable",
      "type": "function"
    },
    {
      "inputs": [
        {
          "internalType": "address",
          "name": "spender",
          "type": "address"
        },
        {
          "internalType": "uint256",
          "name": "addedValue",
          "type": "uint256"
        }
      ],
      "name": "increaseAllowance",
      "outputs": [
        {
          "internalType": "bool",
          "name": "",
          "type": "bool"
        }
      ],
      "stateMutability": "nonpayable",
      "type": "function"
    },
    {
      "inputs": [
        {
          "internalType": "uint256",
          "name": "amount",
          "type": "uint256"
        }
      ],
      "name": "mint",
      "outputs": [],
      "stateMutability": "nonpayable",
      "type": "function"
    },
    {
      "inputs": [],
      "name": "name",
      "outputs": [
        {
          "internalType": "string",
          "name": "",
          "type": "string"
        }
      ],
      "stateMutability": "view",
      "type": "function"
    },
    {
      "inputs": [],
      "name": "symbol",
      "outputs": [
        {
          "internalType": "string",
          "name": "",
          "type": "string"
        }
      ],
      "stateMutability": "view",
      "type": "function"
    },
    {
      "inputs": [],
      "name": "totalSupply",
      "outputs": [
        {
          "internalType": "uint256",
          "name": "",
          "type": "uint256"
        }
      ],
      "stateMutability": "view",
      "type": "function"
    },
    {
      "inputs": [
        {
          "internalType": "address",
          "name": "to",
          "type": "address"
        },
        {
          "internalType": "uint256",
          "name": "amount",
          "type": "uint256"
        }
      ],
      "name": "transfer",
      "outputs": [
        {
          "internalType": "bool",
          "name": "",
          "type": "bool"
        }
      ],
      "stateMutability": "nonpayable",
      "type": "function"
    },
    {
      "inputs": [
        {
          "internalType": "address",
          "name": "from",
          "type": "address"
        },
        {
          "internalType": "address",
          "name": "to",
          "type": "address"
        },
        {
          "internalType": "uint256",
          "name": "amount",
          "type": "uint256"
        }
      ],
      "name": "transferFrom",
      "outputs": [
        {
          "internalType": "bool",
          "name": "",
          "type": "bool"
        }
      ],
      "stateMutability": "nonpayable",
      "type": "function"
    }
  ],
  "bytecode": "0x60806040523480156200001157600080fd5b506040518060400160405280600d81526020017f45524332304275726e61626c65000000000000000000000000000000000000008152506040518060400160405280600581526020017f4552433230000000000000000000000000000000000000000000000000000000815250816003908051906020019062000096929190620000b8565b508060049080519060200190620000af929190620000b8565b505050620001cd565b828054620000c69062000168565b90600052602060002090601f016020900481019282620000ea576000855562000136565b82601f106200010557805160ff191683800117855562000136565b8280016001018555821562000136579182015b828111156200013557825182559160200191906001019062000118565b5b50905062000145919062000149565b5090565b5b80821115620001645760008160009055506001016200014a565b5090565b600060028204905060018216806200018157607f821691505b602082108114156200019857620001976200019e565b5b50919050565b7f4e487b7100000000000000000000000000000000000000000000000000000000600052602260045260246000fd5b6117dc80620001dd6000396000f3fe608060405234801561001057600080fd5b50600436106100ea5760003560e01c806370a082311161008c578063a0712d6811610066578063a0712d681461025f578063a457c2d71461027b578063a9059cbb146102ab578063dd62ed3e146102db576100ea565b806370a08231146101f557806379cc67901461022557806395d89b4114610241576100ea565b806323b872dd116100c857806323b872dd1461015b578063313ce5671461018b57806339509351146101a957806342966c68146101d9576100ea565b806306fdde03146100ef578063095ea7b31461010d57806318160ddd1461013d575b600080fd5b6100f761030b565b6040516101049190611411565b60405180910390f35b61012760048036038101906101229190610f7b565b61039d565b60405161013491906113f6565b60405180910390f35b6101456103c0565b6040516101529190611573565b60405180910390f35b61017560048036038101906101709190610f2c565b6103ca565b60405161018291906113f6565b60405180910390f35b6101936103f9565b6040516101a0919061158e565b60405180910390f35b6101c360048036038101906101be9190610f7b565b610402565b6040516101d091906113f6565b60405180910390f35b6101f360048036038101906101ee9190610fb7565b610439565b005b61020f600480360381019061020a9190610ec7565b61044d565b60405161021c9190611573565b60405180910390f35b61023f600480360381019061023a9190610f7b565b610495565b005b6102496104b5565b6040516102569190611411565b60405180910390f35b61027960048036038101906102749190610fb7565b610547565b005b61029560048036038101906102909190610f7b565b61055b565b6040516102a291906113f6565b60405180910390f35b6102c560048036038101906102c09190610f7b565b6105d2565b6040516102d291906113f6565b60405180910390f35b6102f560048036038101906102f09190610ef0565b6105f5565b6040516103029190611573565b60405180910390f35b60606003805461031a906116d7565b80601f0160208091040260200160405190810160405280929190818152602001828054610346906116d7565b80156103935780601f1061036857610100808354040283529160200191610393565b820191906000526020600020905b81548152906001019060200180831161037657829003601f168201915b5050505050905090565b6000806103a861067c565b90506103b5818585610684565b600191505092915050565b6000600254905090565b6000806103d561067c565b90506103e285828561084f565b6103ed8585856108db565b60019150509392505050565b60006012905090565b60008061040d61067c565b905061042e81858561041f85896105f5565b61042991906115c5565b610684565b600191505092915050565b61044a61044461067c565b82610b5c565b50565b60008060008373ffffffffffffffffffffffffffffffffffffffff1673ffffffffffffffffffffffffffffffffffffffff168152602001908152602001600020549050919050565b6104a7826104a161067c565b8361084f565b6104b18282610b5c565b5050565b6060600480546104c4906116d7565b80601f01602080910402602001604051908101604052809291908181526020018280546104f0906116d7565b801561053d5780601f106105125761010080835404028352916020019161053d565b820191906000526020600020905b81548152906001019060200180831161052057829003601f168201915b5050505050905090565b61055861055261067c565b82610d33565b50565b60008061056661067c565b9050600061057482866105f5565b9050838110156105b9576040517f08c379a00000000000000000000000000000000000000000000000000000000081526004016105b090611533565b60405180910390fd5b6105c68286868403610684565b60019250505092915050565b6000806105dd61067c565b90506105ea8185856108db565b600191505092915050565b6000600160008473ffffffffffffffffffffffffffffffffffffffff1673ffffffffffffffffffffffffffffffffffffffff16815260200190815260200160002060008373ffffffffffffffffffffffffffffffffffffffff1673ffffffffffffffffffffffffffffffffffffffff16815260200190815260200160002054905092915050565b600033905090565b600073ffffffffffffffffffffffffffffffffffffffff168373ffffffffffffffffffffffffffffffffffffffff1614156106f4576040517f08c379a00000000000000000000000000000000000000000000000000000000081526004016106eb90611513565b60405180910390fd5b600073ffffffffffffffffffffffffffffffffffffffff168273ffffffffffffffffffffffffffffffffffffffff161415610764576040517f08c379a000000000000000000000000000000000000000000000000000000000815260040161075b90611473565b60405180910390fd5b80600160008573ffffffffffffffffffffffffffffffffffffffff1673ffffffffffffffffffffffffffffffffffffffff16815260200190815260200160002060008473ffffffffffffffffffffffffffffffffffffffff1673ffffffffffffffffffffffffffffffffffffffff168152602001908152602001600020819055508173ffffffffffffffffffffffffffffffffffffffff168373ffffffffffffffffffffffffffffffffffffffff167f8c5be1e5ebec7d5bd14f71427d1e84f3dd0314c0f7b2291e5b200ac8c7c3b925836040516108429190611573565b60405180910390a3505050565b600061085b84846105f5565b90507fffffffffffffffffffffffffffffffffffffffffffffffffffffffffffffffff81146108d557818110156108c7576040517f08c379a00000000000000000000000000000000000000000000000000000000081526004016108be90611493565b60405180910390fd5b6108d48484848403610684565b5b50505050565b600073ffffffffffffffffffffffffffffffffffffffff168373ffffffffffffffffffffffffffffffffffffffff16141561094b576040517f08c379a0000000000000000000000000000000000000000000000000000000008152600401610942906114f3565b60405180910390fd5b600073ffffffffffffffffffffffffffffffffffffffff168273ffffffffffffffffffffffffffffffffffffffff1614156109bb576040517f08c379a00000000000000000000000000000000000000000000000000000000081526004016109b290611433565b60405180910390fd5b6109c6838383610e93565b60008060008573ffffffffffffffffffffffffffffffffffffffff1673ffffffffffffffffffffffffffffffffffffffff16815260200190815260200160002054905081811015610a4c576040517f08c379a0000000000000000000000000000000000000000000000000000000008152600401610a43906114b3565b60405180910390fd5b8181036000808673ffffffffffffffffffffffffffffffffffffffff1673ffffffffffffffffffffffffffffffffffffffff16815260200190815260200160002081905550816000808573ffffffffffffffffffffffffffffffffffffffff1673ffffffffffffffffffffffffffffffffffffffff1681526020019081526020016000206000828254610adf91906115c5565b925050819055508273ffffffffffffffffffffffffffffffffffffffff168473ffffffffffffffffffffffffffffffffffffffff167fddf252ad1be2c89b69c2b068fc378daa952ba7f163c4a11628f55a4df523b3ef84604051610b439190611573565b60405180910390a3610b56848484610e98565b50505050565b600073ffffffffffffffffffffffffffffffffffffffff168273ffffffffffffffffffffffffffffffffffffffff161415610bcc576040517f08c379a0000000000000000000000000000000000000000000000000000000008152600401610bc3906114d3565b60405180910390fd5b610bd882600083610e93565b60008060008473ffffffffffffffffffffffffffffffffffffffff1673ffffffffffffffffffffffffffffffffffffffff16815260200190815260200160002054905081811015610c5e576040517f08c379a0000000000000000000000000000000000000000000000000000000008152600401610c5590611453565b60405180910390fd5b8181036000808573ffffffffffffffffffffffffffffffffffffffff1673ffffffffffffffffffffffffffffffffffffffff168152602001908152602001600020819055508160026000828254610cb5919061161b565b92505081905550600073ffffffffffffffffffffffffffffffffffffffff168373ffffffffffffffffffffffffffffffffffffffff167fddf252ad1be2c89b69c2b068fc378daa952ba7f163c4a11628f55a4df523b3ef84604051610d1a9190611573565b60405180910390a3610d2e83600084610e98565b505050565b600073ffffffffffffffffffffffffffffffffffffffff168273ffffffffffffffffffffffffffffffffffffffff161415610da3576040517f08c379a0000000000000000000000000000000000000000000000000000000008152600401610d9a90611553565b60405180910390fd5b610daf60008383610e93565b8060026000828254610dc191906115c5565b92505081905550806000808473ffffffffffffffffffffffffffffffffffffffff1673ffffffffffffffffffffffffffffffffffffffff1681526020019081526020016000206000828254610e1691906115c5565b925050819055508173ffffffffffffffffffffffffffffffffffffffff16600073ffffffffffffffffffffffffffffffffffffffff167fddf252ad1be2c89b69c2b068fc378daa952ba7f163c4a11628f55a4df523b3ef83604051610e7b9190611573565b60405180910390a3610e8f60008383610e98565b5050565b505050565b505050565b600081359050610eac81611778565b92915050565b600081359050610ec18161178f565b92915050565b600060208284031215610ed957600080fd5b6000610ee784828501610e9d565b91505092915050565b60008060408385031215610f0357600080fd5b6000610f1185828601610e9d565b9250506020610f2285828601610e9d565b9150509250929050565b600080600060608486031215610f4157600080fd5b6000610f4f86828701610e9d565b9350506020610f6086828701610e9d565b9250506040610f7186828701610eb2565b9150509250925092565b60008060408385031215610f8e57600080fd5b6000610f9c85828601610e9d565b9250506020610fad85828601610eb2565b9150509250929050565b600060208284031215610fc957600080fd5b6000610fd784828501610eb2565b91505092915050565b610fe981611661565b82525050565b6000610ffa826115a9565b61100481856115b4565b93506110148185602086016116a4565b61101d81611767565b840191505092915050565b60006110356023836115b4565b91507f45524332303a207472616e7366657220746f20746865207a65726f206164647260008301527f65737300000000000000000000000000000000000000000000000000000000006020830152604082019050919050565b600061109b6022836115b4565b91507f45524332303a206275726e20616d6f756e7420657863656564732062616c616e60008301527f63650000000000000000000000000000000000000000000000000000000000006020830152604082019050919050565b60006111016022836115b4565b91507f45524332303a20617070726f766520746f20746865207a65726f20616464726560008301527f73730000000000000000000000000000000000000000000000000000000000006020830152604082019050919050565b6000611167601d836115b4565b91507f45524332303a20696e73756666696369656e7420616c6c6f77616e63650000006000830152602082019050919050565b60006111a76026836115b4565b91507f45524332303a207472616e7366657220616d6f756e742065786365656473206260008301527f616c616e636500000000000000000000000000000000000000000000000000006020830152604082019050919050565b600061120d6021836115b4565b91507f45524332303a206275726e2066726f6d20746865207a65726f2061646472657360008301527f73000000000000000000000000000000000000000000000000000000000000006020830152604082019050919050565b60006112736025836115b4565b91507f45524332303a207472616e736665722066726f6d20746865207a65726f20616460008301527f64726573730000000000000000000000000000000000000000000000000000006020830152604082019050919050565b60006112d96024836115b4565b91507f45524332303a20617070726f76652066726f6d20746865207a65726f2061646460008301527f72657373000000000000000000000000000000000000000000000000000000006020830152604082019050919050565b600061133f6025836115b4565b91507f45524332303a2064656372656173656420616c6c6f77616e63652062656c6f7760008301527f207a65726f0000000000000000000000000000000000000000000000000000006020830152604082019050919050565b60006113a5601f836115b4565b91507f45524332303a206d696e7420746f20746865207a65726f2061646472657373006000830152602082019050919050565b6113e18161168d565b82525050565b6113f081611697565b82525050565b600060208201905061140b6000830184610fe0565b92915050565b6000602082019050818103600083015261142b8184610fef565b905092915050565b6000602082019050818103600083015261144c81611028565b9050919050565b6000602082019050818103600083015261146c8161108e565b9050919050565b6000602082019050818103600083015261148c816110f4565b9050919050565b600060208201905081810360008301526114ac8161115a565b9050919050565b600060208201905081810360008301526114cc8161119a565b9050919050565b600060208201905081810360008301526114ec81611200565b9050919050565b6000602082019050818103600083015261150c81611266565b9050919050565b6000602082019050818103600083015261152c816112cc565b9050919050565b6000602082019050818103600083015261154c81611332565b9050919050565b6000602082019050818103600083015261156c81611398565b9050919050565b600060208201905061158860008301846113d8565b92915050565b60006020820190506115a360008301846113e7565b92915050565b600081519050919050565b600082825260208201905092915050565b60006115d08261168d565b91506115db8361168d565b9250827fffffffffffffffffffffffffffffffffffffffffffffffffffffffffffffffff038211156116105761160f611709565b5b828201905092915050565b60006116268261168d565b91506116318361168d565b92508282101561164457611643611709565b5b828203905092915050565b600061165a8261166d565b9050919050565b60008115159050919050565b600073ffffffffffffffffffffffffffffffffffffffff82169050919050565b6000819050919050565b600060ff82169050919050565b60005b838110156116c25780820151818401526020810190506116a7565b838111156116d1576000848401525b50505050565b600060028204905060018216806116ef57607f821691505b6020821081141561170357611702611738565b5b50919050565b7f4e487b7100000000000000000000000000000000000000000000000000000000600052601160045260246000fd5b7f4e487b7100000000000000000000000000000000000000000000000000000000600052602260045260246000fd5b6000601f19601f8301169050919050565b6117818161164f565b811461178c57600080fd5b50565b6117988161168d565b81146117a357600080fd5b5056fea2646970667358221220bafa38745c244a171802d05653b1e0a5d9b1ab997e4a832fdffb8a842e4f436264736f6c63430008000033",
  "linkReferences": {},
  "deployedLinkReferences": {}
}