{
  "_format": "hh-sol-artifact-1",
  "contractName": "ERC20Capped",
  "sourceName": "contracts/erc20capped.sol",
  "abi": [
    {
      "inputs": [
        {
          "internalType": "uint256",
          "name": "cap_",
          "type": "uint256"
        }
      ],
      "stateMutability": "nonpayable",
      "type": "constructor"
    },
    {
      "anonymous": false,
      "inputs": [
        {
          "indexed": true,
          "internalType": "address",
          "name": "owner",
          "type": "address"
        },
        {
          "indexed": true,
          "internalType": "address",
          "name": "spender",
          "type": "address"
        },
        {
          "indexed": false,
          "internalType": "uint256",
          "name": "value",
          "type": "uint256"
        }
      ],
      "name": "Approval",
      "type": "event"
    },
    {
      "anonymous": false,
      "inputs": [
        {
          "indexed": true,
          "internalType": "address",
          "name": "from",
          "type": "address"
        },
        {
          "indexed": true,
          "internalType": "address",
          "name": "to",
          "type": "address"
        },
        {
          "indexed": false,
          "internalType": "uint256",
          "name": "value",
          "type": "uint256"
        }
      ],
      "name": "Transfer",
      "type": "event"
    },
    {
      "inputs": [
        {
          "internalType": "address",
          "name": "owner",
          "type": "address"
        },
        {
          "internalType": "address",
          "name": "spender",
          "type": "address"
        }
      ],
      "name": "allowance",
      "outputs": [
        {
          "internalType": "uint256",
          "name": "",
          "type": "uint256"
        }
      ],
      "stateMutability": "view",
      "type": "function"
    },
    {
      "inputs": [
        {
          "internalType": "address",
          "name": "spender",
          "type": "address"
        },
        {
          "internalType": "uint256",
          "name": "amount",
          "type": "uint256"
        }
      ],
      "name": "approve",
      "outputs": [
        {
          "internalType": "bool",
          "name": "",
          "type": "bool"
        }
      ],
      "stateMutability": "nonpayable",
      "type": "function"
    },
    {
      "inputs": [
        {
          "internalType": "address",
          "name": "account",
          "type": "address"
        }
      ],
      "name": "balanceOf",
      "outputs": [
        {
          "internalType": "uint256",
          "name": "",
          "type": "uint256"
        }
      ],
      "stateMutability": "view",
      "type": "function"
    },
    {
      "inputs": [],
      "name": "cap",
      "outputs": [
        {
          "internalType": "uint256",
          "name": "",
          "type": "uint256"
        }
      ],
      "stateMutability": "view",
      "type": "function"
    },
    {
      "inputs": [],
      "name": "decimals",
      "outputs": [
        {
          "internalType": "uint8",
          "name": "",
          "type": "uint8"
        }
      ],
      "stateMutability": "view",
      "type": "function"
    },
    {
      "inputs": [
        {
          "internalType": "address",
          "name": "spender",
          "type": "address"
        },
        {
          "internalType": "uint256",
          "name": "subtractedValue",
          "type": "uint256"
        }
      ],
      "name": "decreaseAllowance",
      "outputs": [
        {
          "internalType": "bool",
          "name": "",
          "type": "bool"
        }
      ],
      "stateMutability": "nonpayable",
      "type": "function"
    },
    {
      "inputs": [
        {
          "internalType": "address",
          "name": "spender",
          "type": "address"
        },
        {
          "internalType": "uint256",
          "name": "addedValue",
          "type": "uint256"
        }
      ],
      "name": "increaseAllowance",
      "outputs": [
        {
          "internalType": "bool",
          "name": "",
          "type": "bool"
        }
      ],
      "stateMutability": "nonpayable",
      "type": "function"
    },
    {
      "inputs": [],
      "name": "name",
      "outputs": [
        {
          "internalType": "string",
          "name": "",
          "type": "string"
        }
      ],
      "stateMutability": "view",
      "type": "function"
    },
    {
      "inputs": [],
      "name": "symbol",
      "outputs": [
        {
          "internalType": "string",
          "name": "",
          "type": "string"
        }
      ],
      "stateMutability": "view",
      "type": "function"
    },
    {
      "inputs": [],
      "name": "totalSupply",
      "outputs": [
        {
          "internalType": "uint256",
          "name": "",
          "type": "uint256"
        }
      ],
      "stateMutability": "view",
      "type": "function"
    },
    {
      "inputs": [
        {
          "internalType": "address",
          "name": "to",
          "type": "address"
        },
        {
          "internalType": "uint256",
          "name": "amount",
          "type": "uint256"
        }
      ],
      "name": "transfer",
      "outputs": [
        {
          "internalType": "bool",
          "name": "",
          "type": "bool"
        }
      ],
      "stateMutability": "nonpayable",
      "type": "function"
    },
    {
      "inputs": [
        {
          "internalType": "address",
          "name": "from",
          "type": "address"
        },
        {
          "internalType": "address",
          "name": "to",
          "type": "address"
        },
        {
          "internalType": "uint256",
          "name": "amount",
          "type": "uint256"
        }
      ],
      "name": "transferFrom",
      "outputs": [
        {
          "internalType": "bool",
          "name": "",
          "type": "bool"
        }
      ],
      "stateMutability": "nonpayable",
      "type": "function"
    }
  ],
  "bytecode": "0x60a06040523480156200001157600080fd5b5060405162001589380380620015898339818101604052810190620000379190620001f3565b6040518060400160405280600b81526020017f45524332304361707065640000000000000000000000000000000000000000008152506040518060400160405280600581526020017f45524332300000000000000000000000000000000000000000000000000000008152508160039080519060200190620000bb9291906200012c565b508060049080519060200190620000d49291906200012c565b505050600081116200011d576040517f08c379a0000000000000000000000000000000000000000000000000000000008152600401620001149062000261565b60405180910390fd5b8060808181525050506200031d565b8280546200013a906200029e565b90600052602060002090601f0160209004810192826200015e5760008555620001aa565b82601f106200017957805160ff1916838001178555620001aa565b82800160010185558215620001aa579182015b82811115620001a95782518255916020019190600101906200018c565b5b509050620001b99190620001bd565b5090565b5b80821115620001d8576000816000905550600101620001be565b5090565b600081519050620001ed8162000303565b92915050565b6000602082840312156200020657600080fd5b60006200021684828501620001dc565b91505092915050565b60006200022e60158362000283565b91507f45524332304361707065643a20636170206973203000000000000000000000006000830152602082019050919050565b600060208201905081810360008301526200027c816200021f565b9050919050565b600082825260208201905092915050565b6000819050919050565b60006002820490506001821680620002b757607f821691505b60208210811415620002ce57620002cd620002d4565b5b50919050565b7f4e487b7100000000000000000000000000000000000000000000000000000000600052602260045260246000fd5b6200030e8162000294565b81146200031a57600080fd5b50565b60805161125062000339600039600061039a01526112506000f3fe608060405234801561001057600080fd5b50600436106100b45760003560e01c80633950935111610071578063395093511461019157806370a08231146101c157806395d89b41146101f1578063a457c2d71461020f578063a9059cbb1461023f578063dd62ed3e1461026f576100b4565b806306fdde03146100b9578063095ea7b3146100d757806318160ddd1461010757806323b872dd14610125578063313ce56714610155578063355274ea14610173575b600080fd5b6100c161029f565b6040516100ce9190610f19565b60405180910390f35b6100f160048036038101906100ec9190610bb8565b610331565b6040516100fe9190610efe565b60405180910390f35b61010f610354565b60405161011c919061101b565b60405180910390f35b61013f600480360381019061013a9190610b69565b61035e565b60405161014c9190610efe565b60405180910390f35b61015d61038d565b60405161016a9190611036565b60405180910390f35b61017b610396565b604051610188919061101b565b60405180910390f35b6101ab60048036038101906101a69190610bb8565b6103be565b6040516101b89190610efe565b60405180910390f35b6101db60048036038101906101d69190610b04565b6103f5565b6040516101e8919061101b565b60405180910390f35b6101f961043d565b6040516102069190610f19565b60405180910390f35b61022960048036038101906102249190610bb8565b6104cf565b6040516102369190610efe565b60405180910390f35b61025960048036038101906102549190610bb8565b610546565b6040516102669190610efe565b60405180910390f35b61028960048036038101906102849190610b2d565b610569565b604051610296919061101b565b60405180910390f35b6060600380546102ae9061114b565b80601f01602080910402602001604051908101604052809291908181526020018280546102da9061114b565b80156103275780601f106102fc57610100808354040283529160200191610327565b820191906000526020600020905b81548152906001019060200180831161030a57829003601f168201915b5050505050905090565b60008061033c6105f0565b90506103498185856105f8565b600191505092915050565b6000600254905090565b6000806103696105f0565b90506103768582856107c3565b61038185858561084f565b60019150509392505050565b60006012905090565b60007f0000000000000000000000000000000000000000000000000000000000000000905090565b6000806103c96105f0565b90506103ea8185856103db8589610569565b6103e5919061106d565b6105f8565b600191505092915050565b60008060008373ffffffffffffffffffffffffffffffffffffffff1673ffffffffffffffffffffffffffffffffffffffff168152602001908152602001600020549050919050565b60606004805461044c9061114b565b80601f01602080910402602001604051908101604052809291908181526020018280546104789061114b565b80156104c55780601f1061049a576101008083540402835291602001916104c5565b820191906000526020600020905b8154815290600101906020018083116104a857829003601f168201915b5050505050905090565b6000806104da6105f0565b905060006104e88286610569565b90508381101561052d576040517f08c379a000000000000000000000000000000000000000000000000000000000815260040161052490610ffb565b60405180910390fd5b61053a82868684036105f8565b60019250505092915050565b6000806105516105f0565b905061055e81858561084f565b600191505092915050565b6000600160008473ffffffffffffffffffffffffffffffffffffffff1673ffffffffffffffffffffffffffffffffffffffff16815260200190815260200160002060008373ffffffffffffffffffffffffffffffffffffffff1673ffffffffffffffffffffffffffffffffffffffff16815260200190815260200160002054905092915050565b600033905090565b600073ffffffffffffffffffffffffffffffffffffffff168373ffffffffffffffffffffffffffffffffffffffff161415610668576040517f08c379a000000000000000000000000000000000000000000000000000000000815260040161065f90610fdb565b60405180910390fd5b600073ffffffffffffffffffffffffffffffffffffffff168273ffffffffffffffffffffffffffffffffffffffff1614156106d8576040517f08c379a00000000000000000000000000000000000000000000000000000000081526004016106cf90610f5b565b60405180910390fd5b80600160008573ffffffffffffffffffffffffffffffffffffffff1673ffffffffffffffffffffffffffffffffffffffff16815260200190815260200160002060008473ffffffffffffffffffffffffffffffffffffffff1673ffffffffffffffffffffffffffffffffffffffff168152602001908152602001600020819055508173ffffffffffffffffffffffffffffffffffffffff168373ffffffffffffffffffffffffffffffffffffffff167f8c5be1e5ebec7d5bd14f71427d1e84f3dd0314c0f7b2291e5b200ac8c7c3b925836040516107b6919061101b565b60405180910390a3505050565b60006107cf8484610569565b90507fffffffffffffffffffffffffffffffffffffffffffffffffffffffffffffffff8114610849578181101561083b576040517f08c379a000000000000000000000000000000000000000000000000000000000815260040161083290610f7b565b60405180910390fd5b61084884848484036105f8565b5b50505050565b600073ffffffffffffffffffffffffffffffffffffffff168373ffffffffffffffffffffffffffffffffffffffff1614156108bf576040517f08c379a00000000000000000000000000000000000000000000000000000000081526004016108b690610fbb565b60405180910390fd5b600073ffffffffffffffffffffffffffffffffffffffff168273ffffffffffffffffffffffffffffffffffffffff16141561092f576040517f08c379a000000000000000000000000000000000000000000000000000000000815260040161092690610f3b565b60405180910390fd5b61093a838383610ad0565b60008060008573ffffffffffffffffffffffffffffffffffffffff1673ffffffffffffffffffffffffffffffffffffffff168152602001908152602001600020549050818110156109c0576040517f08c379a00000000000000000000000000000000000000000000000000000000081526004016109b790610f9b565b60405180910390fd5b8181036000808673ffffffffffffffffffffffffffffffffffffffff1673ffffffffffffffffffffffffffffffffffffffff16815260200190815260200160002081905550816000808573ffffffffffffffffffffffffffffffffffffffff1673ffffffffffffffffffffffffffffffffffffffff1681526020019081526020016000206000828254610a53919061106d565b925050819055508273ffffffffffffffffffffffffffffffffffffffff168473ffffffffffffffffffffffffffffffffffffffff167fddf252ad1be2c89b69c2b068fc378daa952ba7f163c4a11628f55a4df523b3ef84604051610ab7919061101b565b60405180910390a3610aca848484610ad5565b50505050565b505050565b505050565b600081359050610ae9816111ec565b92915050565b600081359050610afe81611203565b92915050565b600060208284031215610b1657600080fd5b6000610b2484828501610ada565b91505092915050565b60008060408385031215610b4057600080fd5b6000610b4e85828601610ada565b9250506020610b5f85828601610ada565b9150509250929050565b600080600060608486031215610b7e57600080fd5b6000610b8c86828701610ada565b9350506020610b9d86828701610ada565b9250506040610bae86828701610aef565b9150509250925092565b60008060408385031215610bcb57600080fd5b6000610bd985828601610ada565b9250506020610bea85828601610aef565b9150509250929050565b610bfd816110d5565b82525050565b6000610c0e82611051565b610c18818561105c565b9350610c28818560208601611118565b610c31816111db565b840191505092915050565b6000610c4960238361105c565b91507f45524332303a207472616e7366657220746f20746865207a65726f206164647260008301527f65737300000000000000000000000000000000000000000000000000000000006020830152604082019050919050565b6000610caf60228361105c565b91507f45524332303a20617070726f766520746f20746865207a65726f20616464726560008301527f73730000000000000000000000000000000000000000000000000000000000006020830152604082019050919050565b6000610d15601d8361105c565b91507f45524332303a20696e73756666696369656e7420616c6c6f77616e63650000006000830152602082019050919050565b6000610d5560268361105c565b91507f45524332303a207472616e7366657220616d6f756e742065786365656473206260008301527f616c616e636500000000000000000000000000000000000000000000000000006020830152604082019050919050565b6000610dbb60258361105c565b91507f45524332303a207472616e736665722066726f6d20746865207a65726f20616460008301527f64726573730000000000000000000000000000000000000000000000000000006020830152604082019050919050565b6000610e2160248361105c565b91507f45524332303a20617070726f76652066726f6d20746865207a65726f2061646460008301527f72657373000000000000000000000000000000000000000000000000000000006020830152604082019050919050565b6000610e8760258361105c565b91507f45524332303a2064656372656173656420616c6c6f77616e63652062656c6f7760008301527f207a65726f0000000000000000000000000000000000000000000000000000006020830152604082019050919050565b610ee981611101565b82525050565b610ef88161110b565b82525050565b6000602082019050610f136000830184610bf4565b92915050565b60006020820190508181036000830152610f338184610c03565b905092915050565b60006020820190508181036000830152610f5481610c3c565b9050919050565b60006020820190508181036000830152610f7481610ca2565b9050919050565b60006020820190508181036000830152610f9481610d08565b9050919050565b60006020820190508181036000830152610fb481610d48565b9050919050565b60006020820190508181036000830152610fd481610dae565b9050919050565b60006020820190508181036000830152610ff481610e14565b9050919050565b6000602082019050818103600083015261101481610e7a565b9050919050565b60006020820190506110306000830184610ee0565b92915050565b600060208201905061104b6000830184610eef565b92915050565b600081519050919050565b600082825260208201905092915050565b600061107882611101565b915061108383611101565b9250827fffffffffffffffffffffffffffffffffffffffffffffffffffffffffffffffff038211156110b8576110b761117d565b5b828201905092915050565b60006110ce826110e1565b9050919050565b60008115159050919050565b600073ffffffffffffffffffffffffffffffffffffffff82169050919050565b6000819050919050565b600060ff82169050919050565b60005b8381101561113657808201518184015260208101905061111b565b83811115611145576000848401525b50505050565b6000600282049050600182168061116357607f821691505b60208210811415611177576111766111ac565b5b50919050565b7f4e487b7100000000000000000000000000000000000000000000000000000000600052601160045260246000fd5b7f4e487b7100000000000000000000000000000000000000000000000000000000600052602260045260246000fd5b6000601f19601f8301169050919050565b6111f5816110c3565b811461120057600080fd5b50565b61120c81611101565b811461121757600080fd5b5056fea26469706673582212204056200eab2bbeeb20777041a16eb2d760fc1dba4bec2c1d11aae4f5e08e303c64736f6c63430008000033",
  "linkReferences": {},
  "deployedLinkReferences": {}
}